:020000040800F2
:1000000000000220152300086D210008752100085A
:100010007D210008852100088D21000800000000D6
:100020000000000000000000000000009521000812
:10003000A321000800000000B1210008C121000830
:100040006523000865230008652300086523000870
:100050006523000865230008DD21000865230008EA
:100060006523000865230008652300086523000850
:100070006523000865230008652300086523000840
:100080006523000865230008652300086523000830
:10009000ED2100086523000865230008652300089A
:1000A0006523000865230008652300086523000810
:1000B0006523000865230008652300086523000800
:1000C00065230008652300086523000865230008F0
:1000D0006523000865230008652300083D22000809
:1000E00065230008652300086523000865230008D0
:1000F00065230008652300086523000865230008C0
:1001000065230008652300086523000865230008AF
:10011000652300086523000865230008652300089F
:10012000652300086523000865230008652300088F
:10013000652300080000000000000000652300089F
:100140005D22000865230008652300086523000878
:10015000652300086523000865230008652300085F
:10016000652300086523000865230008652300084F
:10017000652300086523000800000000000000005F
:08018000652300086523000857
:1001900010B5054C237833B9044B13B10448AFF3C1
:1001A00000800123237010BDA80000200000000083
:1001B000F85B000808B5034B1BB103490348AFF3D4
:1001C000008008BD00000000AC000020F85B0008C3
:1001D00001F0FF01102A2BDB10F0070F08D010F8F8
:1001E000013B013A8B422DD010F0070F42B3F6D1FC
:1001F000F0B441EA012141EA014122F007047FF015
:1002000000070023F0E80256083C85EA010586EA6B
:10021000010685FA47F5A3FA87F586FA47F6A5FAA7
:1002200087F68EB9EED1F0BC01F0FF0102F00702B3
:1002300032B110F8013B013A83EA010313B1F8D15E
:100240000020704701387047002D06BF354603383F
:10025000073815F0010F07D1013015F4807F02BF78
:10026000013015F4C03F0130F0BC0138704700BFC9
:1002700053B94AB9002908BF00281CBF4FF0FF310D
:100280004FF0FF3000F088B9ADF1080C6DE904CEF5
:1002900000F006F8DDF804E0DDE9022304B0704761
:1002A0002DE9F047089D8E4604468846002B4AD12A
:1002B0008A42174662D9B2FA82F64EB1C6F12003DD
:1002C00001FA06F820FA03F3B74043EA0808B440FD
:1002D0004FEA174E1FFA87FCB8FBFEF1230C0EFB0A
:1002E000118843EA084301FB0CF29A4209D9FB1832
:1002F00001F1FF3080F0EA809A4240F2E780023953
:100300003B449A1AA3B2B2FBFEF00EFB102243EA62
:10031000024300FB0CFC9C4509D9FB1800F1FF329D
:1003200080F0D6809C4540F2D3803B44023840EABE
:100330000140A3EB0C0300211DB1F3400022C5E9ED
:100340000032BDE8F0878B4205D90DB1C5E9000147
:1003500000210846F5E7B3FA83F1002946D1734539
:1003600002D3824200F20581841A6EEB030201205F
:100370009046002DE5D0C5E90048E2E7002A00F0EC
:100380009080B2FA82F6002E40F0A4808A1A030C04
:100390004FEA174E80B2BCB20121B2FBFEFC0EFB4D
:1003A0001C2243EA024304FB0CF29A4207D9FB18D1
:1003B0000CF1FF3802D29A4200F2E080C4469B1A48
:1003C000B3FBFEF20EFB123340EA034302FB04F4DC
:1003D0009C4207D9FB1802F1FF3002D29C4200F286
:1003E000CA8002461B1B42EA0C40A5E7C1F1200669
:1003F0008B4022FA06F71F430EFA01F420FA06F3A7
:100400002EFA06FE4FEA1749234300FA01F81FFAB5
:1004100087FCBEFBF9F01C0C09FB10EE44EA0E440D
:1004200000FB0CFEA64502FA01F209D93C1900F1C5
:10043000FF3A80F09C80A64540F2998002383C4407
:10044000A4EB0E041FFA83FEB4FBF9F309FB13447B
:100450004EEA044403FB0CFCA44508D93C1903F103
:10046000FF3E80F08280A4457FD9023B3C4443EAB2
:100470000040A4EB0C04A0FB02EC64457346E1468B
:1004800062D35FD05DB1B8EB030264EB090404FAF8
:1004900006F622FA01F31E43CC40C5E900640021B0
:1004A0004FE7B1FBF2FC010C41EA0E4180B240EA99
:1004B00001423B4638463C46B846BE462026B1FB84
:1004C000F7F1A2EB080241EA0C4166E7014618E7A2
:1004D00010462CE7C6F120022EFA02F3B740B140D5
:1004E00020FA02F24FEA174E0A43B3FBFEF8BCB201
:1004F0000EFB1833110C41EA034108FB04F9B0402C
:1005000089454FEA104380B23ED9791808F1FF3C83
:1005100001D289451FD8A1EB0901B1FBFEF909FB06
:1005200004F80EFB191192B242EA0142424529D267
:10053000BA1809F1FF31C4D24245C2D2A9F1020171
:100540003A44BEE7F0459DD2BEEB02036CEB070CCC
:100550000138E14696E7A7EB09094944A8F1020CE6
:10056000B1FBFEF909FB04F8DBE773467FE7504671
:1005700066E70846FDE63B44023A33E7ACF1020C7D
:100580003B441CE749469CE7A1EB0901C446B1FB8B
:10059000FEF909FB04F8C4E7704700BF80B584B0DA
:1005A00000AF78600B467B807B88002B31D000F059
:1005B000C5F87B681B781B09FB73FB7B002B13D1F1
:1005C0007B681B7803F00F03BB73BB7B002B21D030
:1005D000BB7B072B1ED87B680133BA7B92B21146D6
:1005E000184600F01AF815E0FB7B012B03D1786860
:1005F00000F0D0F80EE0FB7B022B03D1786800F00E
:100600001FF907E0FB7B032B04D1786800F078F931
:1006100000E000BF1037BD4680BD80B582B000AF9E
:1006200078600B467B807B681B782E2B12D02E2B9C
:1006300016DC222B02D0272B06D011E07B8819462E
:10064000786800F09CF90CE07B881946786800F027
:10065000E7F906E07B881946786800F01BFB00E0AC
:1006600000BF00BF0837BD4680BD000080B584B024
:1006700000AF78600B467B800023FB6007E01F4AD9
:10068000FB68134455221A70FB680133FB60FB685A
:10069000072BF4DD0023BB600BE0BB687A681344D2
:1006A0001978164ABB6813440A461A70BB680133AE
:1006B000BB607B88BA689A4202DABB68072BECDD24
:1006C0000F4B40F2A2721A600D4B00225A600C4B85
:1006D0000022DA600A4B00229A60094B08221A6154
:1006E000074B00221A75074B044A0549064802F0D9
:1006F000F1F800BF1037BD4680BD00BF8412002056
:100700000C020020680200204401002080B584B063
:1007100000AF03460A46FB711346BB717F233B7350
:10072000FB797B73BB79BB7307F10C03032118467C
:10073000FFF79CFF00BF1037BD4680BD80B500AFFE
:100740000B4B1B78002B11D001F074FE0246094BB5
:100750001B68D31A41F28832934207D9044B002216
:100760001A7000220121044803F058F800BF80BD30
:10077000C4000020C80000200004024080B400AF84
:10078000034B1B781846BD465DF8047B704700BFDD
:10079000C400002080B584B000AF78607B681B780F
:1007A0001BB21B021BB203F470631AB27B680133E5
:1007B0001B781BB213431BB27B817B89402B03D96F
:1007C000322000F0BDF82EE0184A7B891380184BC8
:1007D00000221A80174B01221A70174B01221A703F
:1007E0000023FB6011E0FB6802331A467B681A4461
:1007F0000F4B1B88591C88B20D4908801946127886
:100800000E4B5A54FB680133FB60FB68052B04DC7C
:10081000074B1B887A899A42E5D8302000F090F87F
:10082000054B02221A701037BD4680BD140100200E
:100830001601002018010020D2000020D400002062
:1008400080B584B000AF7860284B1B78022B48D16C
:100850007B681B7803F00F03FB72254B1B78FA7A39
:100860009A4203D0214B00221A703BE00023FB6028
:1008700011E0FB6801331A467B681A441D4B1B8844
:10088000591C88B21B490880194612781A4B5A54D1
:10089000FB680133FB60FB68062B05DC154B1A88EF
:1008A000164B1B889A42E4D3114B1B780133DAB202
:1008B0000F4B1A700E4B1B780F2B02D90C4B0022DA
:1008C0001A700C4B1A880D4B1B889A420AD30B4B9B
:1008D0001B8819460848FFF7A0FE044B00221A7037
:1008E00000E000BF1037BD4680BD00BFD200002031
:1008F0001801002016010020D4000020140100205F
:1009000080B485B000AF78607B681B7803F00F037C
:10091000FB73FB7B022B06D0022B06DC002B06D0E0
:10092000012B06D001E000BF04E000BF02E000BFE1
:1009300000E000BF00BF1437BD465DF8047B704780
:1009400080B584B000AF0346FB71FB793B72002396
:100950007B720023BB725523FB7255233B735523D7
:100960007B735523BB735523FB7307F108030821E1
:100970001846FFF77BFE00BF1037BD4680BD80B52F
:1009800084B000AF78600B467B807B88032B04D05B
:1009900013212220FFF7BAFE1BE07B6801331B788E
:1009A0001BB21B021AB27B6802331B781BB21343C3
:1009B0001BB2FB81FB8940F22312934204D1FB89D5
:1009C000184600F009F804E031212220FFF79EFECE
:1009D00000BF1037BD4680BD80B584B000AF034670
:1009E000FB8062233B72FB881B0A9BB2DBB27B72EB
:1009F000FB88DBB2BB72094B1B681B0ADBB2FB72C4
:100A0000064B1B68DBB23B7307F108030521184650
:100A1000FFF72CFE00BF1037BD4680BDC801002087
:100A200080B584B000AF78600B467B807B88012B5B
:100A300004D813212720FFF769FE27E07B685B7845
:100A4000FB73FB7B012B0CD17B88022B04D0132181
:100A50002720FFF75BFE19E0FB7B184600F01AF831
:100A600014E0FB7B022B0DD17B88082B04D01321D3
:100A70002720FFF74BFE09E07B881946786800F0D5
:100A800033F803E031212720FFF740FE1037BD4641
:100A900080BD000080B584B000AF0346FB7100F05C
:100AA0006BF867233B72FB797B720E4B1B78BB7232
:100AB0000C4B5B78FB720B4B9B783B73094BDB78E1
:100AC0007B73084B1B79BB73064B5B79FB7307F198
:100AD000080308211846FFF7C9FD00BF1037BD46BF
:100AE00080BD00BFCC00002080B586B000AF78602C
:100AF0000B467B807B689B783B747B68DB787B74E0
:100B00007B681B79BB747B685B79FB747B689B7922
:100B10003B757B68DB797B7507F11003184600F0A5
:100B20004BF80346002B18D0104B01221A7001F02D
:100B300081FC03460E4A1360012201210D4802F098
:100B40006DFE67233B737B685B787B7307F10C0357
:100B500002211846FFF78AFD03E035212720FFF721
:100B6000D5FD00BF1837BD4680BD00BFC4000020C2
:100B7000C80000200004024080B483B000AF00230E
:100B80007B600BE00A4A7B6813441978094A7B684A
:100B900013440A461A707B6801337B607B68052B1F
:100BA000F0DD00BF00BF0C37BD465DF8047B704729
:100BB00044000020CC00002080B586B000AF7860F3
:100BC00007F10C0319460F4800F01EF800237B6163
:100BD0000FE07B697A6813441A7807F10C017B698E
:100BE0000B441B789A4201D0002306E07B69013355
:100BF0007B617B69052BECDD012318461837BD4668
:100C000080BD00BFCC00002080B483B000AF78600E
:100C100039607B681A787B6801331B785340DAB2FD
:100C20003B681A707B68013319787B6802331A7845
:100C30003B6801330A44D2B21A707B6802331978D8
:100C40007B6803331A783B6802334A40D2B21A7089
:100C50007B68033319787B681A783B6803330A444E
:100C6000D2B21A707B6804331A783B68043322F0DE
:100C70000F02D2B21A707B6805331A783B680533CD
:100C800002F00F02D2B21A7000BF0C37BD465DF8F9
:100C9000047B704780B584B000AF78600B467B80E2
:100CA0007B88042B04D813212E20FFF72FFD30E082
:100CB000FFF764FD0346002B04D133212E20FFF7FC
:100CC00025FD26E07B6801331B781BB21B021AB29C
:100CD0007B6802331B781BB213431BB2FB81FB8979
:100CE00040F2231293420FD17B88052B07D17B68FA
:100CF000DA1CFB891146184600F00EF809E01321B2
:100D00002E20FFF703FD04E031212E20FFF7FEFC2B
:100D100000BF1037BD4680BD80B584B000AF03462C
:100D20003960FB803B681B781BB21B021AB23B6820
:100D300001331B781BB213431BB2FB81074AFB89AB
:100D400013806E233B7307F10C0301211846FFF754
:100D50008DFC00BF1037BD4680BD00BF00000020E5
:100D600080B500AF01F000FB00F0EAF800F0E8F910
:100D700000F050F900F084F900F0B8F900F070FAD2
:100D800000F0A2FA5C4B1B68DA685B4B1B6842F010
:100D90002002DA6001225949574803F0F4FA584B0F
:100DA00040F223121A60564B08221A61554B012259
:100DB0001A70544B02225A70524B03229A70514BB4
:100DC0000422DA704F4B05221A714E4B06225A71DB
:100DD0004C4B07229A714B4B0822DA714A4800F0BB
:100DE000A1FA4A4800F09EFA00F0E0FB444B1B6871
:100DF0009BB24449184600F0AFFA01F01BFB0346D2
:100E0000434A1360FFF79AFC3C4B1B78002B07D03A
:100E10003A4B1B78184600F029FC384B00221A7018
:100E200002213C4802F0E2FC0346002B25D11420AD
:100E300000F044FB384800F075FA00BF0221354845
:100E400002F0D4FC0346002BF8D0344B1B8840F250
:100E50001272934207D0314B1B885B01304A1360FA
:100E6000304800F05FFA00F0FBF900F02DFA2E4850
:100E700000F058FA142000F021FB2C4B1B78002BBB
:100E80001ED001F0D7FA0246294B1B68D31A42F252
:100E90001072934214D901F0CDFA0346244A13602C
:100EA000244800F03FFA174B1B780133DAB2154B98
:100EB0001A70134B1B689BB21249184600F04CFA8B
:100EC0001A4B1B78002B13D001F0B4FA02461A4BD0
:100ED0001B68D31A43F69822934209D901F0AAFA63
:100EE0000346154A1360154800F01CFA00F0F4FAA6
:100EF000322000F0E3FA80E76C010020701200203D
:100F0000B001002074120020105C0008345C00085E
:100F10009412002000000240585C000800000020ED
:100F2000E4010020605C0008745C00089812002056
:100F3000C4120020805C0008C8120020A05C0008D9
:100F400080B594B000AF07F120033022002118468D
:100F500004F0D4F907F10C0300221A605A609A6079
:100F6000DA601A610023BB60284B1B6C274A43F0F0
:100F700080531364254B1B6C03F08053BB60BB682C
:100F800000237B60224B1B68214A43F4804313609B
:100F90001F4B1B6803F480437B607B6802233B622A
:100FA0000123FB6210233B630223BB630023FB632B
:100FB00008233B64A8237B640223BB640423FB64F3
:100FC00007F12003184602F067FC0346002B01D00E
:100FD00000F09EFF0F23FB6002233B6100237B6137
:100FE0004FF4A053BB614FF48053FB6107F10C0336
:100FF0000521184602F0C8FE0346002B01D000F080
:1010000087FF00BF5037BD4680BD00BF003802409B
:101010000070004080B500AF174B184A1A60164B9D
:1010200015225A60144B00229A60134B0022DA609A
:10103000114B4FF430221A610F4B4FF440125A619A
:101040000D4B00221A760C4B00225A760A4B0022D6
:101050009A76094B0022DA76074B00221A77064B64
:1010600000225A77044801F015FA0346002B01D0FC
:1010700000F04EFF00BF80BD1C0100200064004056
:1010800080B500AF174B184A1A60164B15225A60EC
:10109000144B00229A60134B0022DA60114B4FF47C
:1010A00030221A610F4B4FF440125A610D4B00224F
:1010B0001A760C4B00225A760A4B00229A76094B7C
:1010C0000022DA76074B00221A77064B00225A7765
:1010D000044801F0DFF90346002B01D000F018FFAF
:1010E00000BF80BD440100200068004080B500AF13
:1010F000114B124A1A60104B4FF4E1325A600E4BFA
:1011000000229A600C4B0022DA600B4B00221A611D
:10111000094B0C225A61084B00229A61064B0022AF
:10112000DA61054803F050F80346002B01D000F0C7
:10113000EFFE00BF80BD00BF6C01002000480040F2
:1011400080B58AB000AF07F1140300221A605A601C
:101150009A60DA601A6100233B613D4B1B6B3C4A8D
:1011600043F0040313633A4B1B6B03F004033B612E
:101170003B690023FB60364B1B6B354A43F0800311
:101180001363334B1B6B03F08003FB60FB6800238E
:10119000BB602F4B1B6B2E4A43F0010313632C4B98
:1011A0001B6B03F00103BB60BB6800237B60284B13
:1011B0001B6B274A43F002031363254B1B6B03F0A1
:1011C00002037B607B6842F2F0037B610023BB611A
:1011D0000123FB6107F1140319461E4802F06AF966
:1011E00001237B614FF40413BB610123FB6107F111
:1011F00014031946184802F05DF902237B610023AD
:10120000BB610123FB6107F114031946124802F088
:1012100051F901237B610123BB610023FB610023A2
:101220003B6207F1140319460C4802F043F900220F
:1012300001210A4802F0F2FA00220121062002F000
:1012400070F8062002F089F800BF2837BD4680BD3F
:101250000038024000080240000002400004024042
:1012600080B500AF164B4EF240221A60144B00229C
:101270005A60134B4FF6FF729A60114B0022DA60EE
:101280000F4B00221A610E4B00225A610C4B0022B8
:101290009A610B4B0122DA61094B01221A62084B59
:1012A0000E225A620649074801F0F0F9054801F09C
:1012B000CDFA0221034801F0FAFC00BF80BD00BF57
:1012C000E40100201C01002080B500AF134B002278
:1012D0001A60124B00225A60104B00229A600F4B8A
:1012E0000022DA600D4B00221A610C4B0E225A616B
:1012F0000A4B00229A61094B0122DA61074B012255
:101300001A620649064801F0C1F9054801F09EFA43
:101310000221034801F0CBFC00BF80BD4002002049
:101320004401002080B582B000AF786009E04FF042
:10133000FF3301227968074802F093FF7B6801338D
:101340007B607B681B78002BF1D100BF00BF0837A2
:10135000BD4680BD6C01002080B588B000AF03465B
:101360003960FB800023FB833A4A07F1180392E8B7
:101370000300186004331980374B7B61374A07F14B
:101380000C0392E8030083E80300354B1A6807F169
:101390000C033449184603F08FFF07F10C0318467D
:1013A000FFF7C0FF3048FFF7BDFFFA8807F11803C9
:1013B0002E49184603F080FF0023FB830AE0FA8BD6
:1013C000FB8B20323A4412F8081C294AD154FB8B7B
:1013D0000133FB83FB8B022BF1D9254B3A22DA70C8
:1013E000234B20221A710023FB8325E0FB8B3A68F4
:1013F00013441B781A4607F114031E49184603F0DC
:101400005BFFFA8B13465B0013440533397D184AA2
:10141000D154FA8B13465B0013440633797D144A8A
:10142000D154FA8B13465B0013440733104A202132
:10143000D154FB8B0133FB83FB8B072BD6D90C4B91
:101440000A225A770A48FFF76DFF00BF2037BD46D2
:1014500080BD00BFD45C000820202000DC5C0008B8
:1014600094120020C05C0008C45C0008C85C00083E
:1014700004000020CC5C000880B582B000AF78602A
:101480000A4B1B881A460A4B19780A4B9954074B8A
:101490001B8801339AB2054B1A8001220449064881
:1014A00002F071FF00BF0837BD4680BD6C0200200E
:1014B00070120020700200206C01002080B582B004
:1014C00000AF0346FB80FB88184600F0BFFF00BF5B
:1014D0000837BD4680BD000080B500AF1748FFF754
:1014E00021FF174A40F21271164800F03BF84FF402
:1014F0007A70FFF7E3FF144A40F21271134800F0CC
:1015000031F84FF47A70FFF7D9FF114A40F21271A7
:10151000104800F027F84FF47A70FFF7CFFF0E4A1B
:1015200040F212710D4800F01DF84FF47A70FFF789
:10153000C5FF0B48FFF7F6FE00BF80BDE45C000866
:10154000085D000824000020245D00082C00002015
:10155000485D000834000020685D00083C00002061
:10156000905D000880B584B000AFF8600B467A60EB
:101570007B817868FFF7D6FE0B48FFF7D3FE7B89A7
:10158000F9681846FFF7E8FEFB681B7801339BB249
:101590001946F868FFF702F80348FFF7C3FE00BFDB
:1015A0001037BD4680BD00BFA85D000880B500AF04
:1015B0001C48FFF7B7FE1C48FFF7B4FE1B4B1B7817
:1015C000002B03D01A48FFF7ADFE02E01948FFF7E1
:1015D000A9FE1948FFF7A6FE1848FFF7A3FE184812
:1015E000FFF7A0FE1748FFF79DFE1748FFF79AFE8A
:1015F0001648FFF797FE1648FFF794FE1548FFF7C9
:1016000091FE1548FFF78EFE1448FFF78BFE144835
:10161000FFF788FE1348FFF785FE1348FFF782FEA9
:1016200000BF80BDAC5D0008D85D00084A00002006
:10163000E05D0008E85D0008F05D00081C5E000841
:10164000285E0008585E0008885E0008B85E000842
:10165000E85E0008145F0008405F0008605F000853
:101660007C5F0008985F0008C45F000880B582B006
:1016700000AF0346FB71A14B1B78002B04D0FB7914
:10168000184600F0FBFA35E1FB790A3B6E2B00F2BD
:10169000298101A252F823F0F3180008E518000888
:1016A000E5180008F3180008E5180008E518000818
:1016B000E5180008E5180008E5180008E518000816
:1016C000E5180008E5180008E5180008E518000806
:1016D000E5180008E5180008E5180008E5180008F6
:1016E000E5180008E5180008E5180008E5180008E6
:1016F000E5180008E5180008E5180008E5180008D6
:10170000E5180008E5180008E5180008E5180008C5
:10171000E5180008E5180008E5180008E5180008B5
:10172000E5180008E5180008E5180008E5180008A5
:10173000E518000855180008611800086D18000821
:1017400079180008E5180008E5180008E5180008F1
:10175000E5180008E5180008E5180008E518000875
:10176000E5180008E5180008E5180008E518000865
:10177000E518000885180008E5180008E5180008B5
:10178000E5180008E5180008E5180008E518000845
:10179000B9180008E5180008E5180008E518000861
:1017A000E5180008B3180008E5180008E518000857
:1017B000E5180008E5180008E5180008BF1800083B
:1017C000E5180008E5180008E5180008E518000805
:1017D00091180008E5180008E5180008E518000849
:1017E000E5180008E5180008E5180008E5180008E5
:1017F000E518000885180008E5180008E518000835
:10180000E5180008E5180008E5180008E5180008C4
:10181000B9180008E5180008E5180008E5180008E0
:10182000E5180008B3180008E5180008E5180008D6
:10183000E5180008E5180008E5180008BF180008BA
:10184000E5180008E5180008E5180008E518000884
:10185000911800082A48FFF765FD00F06BF849E091
:101860002848FFF75FFD00F08DF843E02648FFF7BA
:1018700059FD00F0B3F83DE02448FFF753FD00F0B8
:1018800001F937E02248FFF74DFDFFF725FE31E073
:101890002048FFF747FD194B01221A701E4B00220A
:1018A0001A70182200211D4803F028FD00F09CF951
:1018B00020E000F029F91DE0FFF778FE1AE0184853
:1018C000FFF730FDFEF75AFF0346002B03D0154803
:1018D000FFF728FD02E01448FFF724FD1348FFF747
:1018E00021FD07E01248FFF71DFD1048FFF71AFD24
:1018F00000E000BF0837BD4680BD00BFC012002019
:10190000D45F0008F85F00082460000850600008F9
:10191000746000089C600008B41200209C12002033
:10192000C0600008DC60000804610008C45F0008B3
:101930002861000880B500AF0B48FFF7F3FC0B48A7
:10194000FFF7F0FC0A48FFF7EDFC0A4A40F212717B
:101950000948FFF707FE0948FFF7E4FC0848FFF7CE
:10196000E1FC00BF80BD00BF506100088861000835
:10197000B8610008E8610008240000200062000847
:10198000C45F000880B500AF0C48FFF7CBFC0C48E3
:10199000FFF7C8FC0B48FFF7C5FC0B4A40F2127179
:1019A0000A48FFF7DFFD0A48FFF7BCFC0948FFF7CC
:1019B000B9FC0948FFF7B6FC00BF80BD1C620008F7
:1019C0005862000880620008B86200082C000020FD
:1019D000D462000818630008C45F000880B500AF37
:1019E0001848FFF79FFC1848FFF79CFC1748FFF7C3
:1019F00099FC1748FFF796FC1648FFF793FC16482A
:101A0000FFF790FC1548FFF78DFC1548FFF78AFC9F
:101A10001448FFF787FC1448FFF784FC1348FFF7CE
:101A200081FC134A40F212711248FFF79BFD1248E5
:101A3000FFF778FC1148FFF775FC1148FFF772FCBF
:101A400000BF80BD346300086C630008A463000815
:101A5000E0630008F86300081864000834640008B4
:101A600054640008706400088C640008A8640008CE
:101A7000C464000834000020D86400081065000821
:101A8000C45F000880B500AF1448FFF74BFC144852
:101A9000FFF748FC1348FFF745FCFEF76FFE0346CF
:101AA000002B06D11048FFF73DFC1048FFF73AFC29
:101AB00002E00F48FFF736FC0E4A40F212710E4862
:101AC000FFF750FD0D48FFF72DFC0D48FFF72AFCEE
:101AD0000C48FFF727FC00BF80BD00BF2C65000845
:101AE00064650008A8650008EC6500082C6600081D
:101AF00064660008986600083C000020B066000894
:101B0000FC660008C45F000880B500AF184B1B7866
:101B1000002B0CBF01230023DBB21A46144B1A70B2
:101B2000144B1B78002B0CBF01230023DBB21A4699
:101B3000104B1A701048FFF7F5FB0D4B1B78002B6C
:101B400009D00E48FFF7EEFB0D48FFF7EBFB0D4801
:101B5000FFF7E8FB08E00C48FFF7E4FB0B48FFF752
:101B6000E1FB0B48FFF7DEFBFFF720FD00BF80BD68
:101B70004A0000209812002018670008306700080B
:101B80004C6700086867000890670008A8670008AD
:101B9000CC67000880B483B000AF0346FB71FB79CB
:101BA0002F2B06D9FB79392B03D8FB79303BDBB2DD
:101BB00014E0FB79402B06D9FB79462B03D8FB793F
:101BC000373BDBB20AE0FB79602B06D9FB79662B49
:101BD00003D8FB79573BDBB200E0FF2318460C37F4
:101BE000BD465DF8047B704780B500AF1548FFF730
:101BF00099FB1548FFF796FB1448FFF793FB144831
:101C0000FFF790FB1348FFF78DFB1348FFF78AFBA4
:101C10001248FFF787FB1248FFF784FB1148FFF7D4
:101C200081FB1148FFF77EFB1048FFF77BFB104854
:101C3000FFF778FB0F48FFF775FB0F48FFF772FBC4
:101C400000BF80BDF0670008186800083C68000805
:101C5000606800086C68000898680008C46800089C
:101C6000F06800081C5E00081C690008386900085C
:101C700054690008746900089C69000880B584B044
:101C800000AF0346FB71FB791B2B10D14048FFF7D7
:101C900049FB404B00221A703F4B00221A70182259
:101CA00000213E4803F02AFBFFF780FC6CE0FB7943
:101CB0000D2B02D0FB790A2B05D13948FFF732FBF7
:101CC00000F07AF860E0FB79202B03D13548FFF76C
:101CD00029FB59E0FB79082B02D0FB797F2B13D12C
:101CE0002D4B1B78002B4ED02B4B1B78013BDAB2CF
:101CF000294B1A70284B1B781A46284B00219954FF
:101D00002948FFF70FFB3EE0FB791846FFF742FF3B
:101D10000346FB73FB7BFF2B06D12448FFF702FB36
:101D20002348FFF7FFFA2FE01B4B1B78162B23D815
:101D3000194B1B781946194AFB795354164B1B78DB
:101D40000133DAB2144B1A70FB793B7300237B73B7
:101D500007F10C031846FFF7E5FA0F4B1B7803F069
:101D60000103DBB2002B0FD10B4B1B78162B0BD8CA
:101D70000C48FFF7D7FA07E00E48FFF7D3FA0C48F4
:101D8000FFF7D0FA00E000BF1037BD4680BD00BFAE
:101D9000A4690008C0120020B41200209C12002088
:101DA000A85D0008C45C0008C8690008CC69000888
:101DB0009C690008F469000880B586B000AF002374
:101DC000FB7508225521484803F098FA00233B612F
:101DD0002FE03B690133454A1278934226DA444AA0
:101DE0003B6913441B781846FFF7D4FE0346BB72C9
:101DF0003B6901333E4AD35C1846FFF7CBFE0346EE
:101E00007B72BB7AFF2B11D07B7AFF2B0ED097F918
:101E10000A301B015AB297F9093013435AB2FB7DBD
:101E2000D1B2314AD154FB7D0133FB753B6902339A
:101E30003B612E4B1B781A463B69934202DAFB7DCD
:101E4000072BC6D9FB7D002B06D12A48FFF76AFA7B
:101E50002948FFF767FA44E02848FFF763FA0023B0
:101E6000FB6010E0204AFB6813441B781A463B1DB8
:101E70002349184603F020FA3B1D1846FFF752FA93
:101E8000FB680133FB60FB68072BEBDD1D48FFF7A8
:101E900049FA1D48FFF746FA134940F21270FFF75E
:101EA0005BFA0823FB72104B1B7803F0F003002B46
:101EB00006D10D4B1B7803F00F03DBB20133FB722D
:101EC000FB7A9BB219460848FEF768FB074B0022D5
:101ED0001A7018220021064803F010FA0B48FFF789
:101EE00021FA1837BD4680BDB8120020B412002078
:101EF0009C1200202C6A00089C6900084C6A0008AB
:101F0000586A0008A85D0008606A0008846A000832
:101F100080B400AF72B600BF00BFFDE780B483B0ED
:101F200000AF00237B60104B5B6C0F4A43F480438F
:101F300053640D4B5B6C03F480437B607B68002330
:101F40003B60094B1B6C084A43F080531364064BFB
:101F50001B6C03F080533B603B6800BF0C37BD46F1
:101F60005DF8047B704700BF0038024080B58CB03C
:101F700000AF786007F11C0300221A605A609A6073
:101F8000DA601A617B681B684A4A93423ED14A4B29
:101F90001B680133484A1360474B1B68012B0DD166
:101FA0000023BB61454B1B6C444A43F00073136430
:101FB000424B1B6C03F00073BB61BB6900237B6168
:101FC0003E4B1B6B3D4A43F0010313633B4B1B6BC2
:101FD00003F001037B617B694FF4C053FB61022373
:101FE0003B6200237B620323BB620923FB6207F190
:101FF0001C031946324801F05DFA00220221142028
:1020000001F08FF9142001F0A8F94FE07B681B68FC
:102010002C4A93424AD100233B61284B1B6C274A30
:1020200043F080631364254B1B6C03F080633B61BA
:102030003B69214B1B6801331F4A13601E4B1B6811
:10204000012B0DD10023FB601C4B1B6C1B4A43F082
:1020500000731364194B1B6C03F00073FB60FB6887
:102060000023BB60154B1B6B144A43F00203136340
:10207000124B1B6B03F00203BB60BB686023FB6168
:1020800002233B6200237B620323BB620923FB62C2
:1020900007F11C0319460C4801F00CFA002202213A
:1020A000402001F03EF9402001F057F900BF3037E1
:1020B000BD4680BD00640040CC12002000380240C4
:1020C00000000240006800400004024080B58AB071
:1020D00000AF786007F1140300221A605A609A601A
:1020E000DA601A617B681B681D4A934234D1002371
:1020F0003B611C4B1B6C1B4A43F480231364194B3C
:102100001B6C03F480233B613B690023FB60154B90
:102110001B6B144A43F004031363124B1B6B03F055
:102120000403FB60FB684FF440637B610223BB61E7
:102130000023FB6103233B6207237B6207F1140347
:102140001946094801F0B6F900220121272001F0C3
:10215000E8F8272001F001F900BF2837BD4680BD0F
:1021600000480040003802400008024080B400AF40
:1021700000BFFDE780B400AF00BFFDE780B400AF53
:1021800000BFFDE780B400AF00BFFDE780B400AF43
:1021900000BFFDE780B400AF00BFBD465DF8047B23
:1021A000704780B400AF00BFBD465DF8047B704748
:1021B00080B400AF00BFBD465DF8047B70470000EF
:1021C00080B500AF00F022F9034B1B680133024ACF
:1021D000136000BF80BD00BF9412002080B500AF27
:1021E000012001F035FB00BF80BD000080B500AFCD
:1021F0000F4800F082FD0F4B0F4A00210C4800F001
:1022000044FC0D4B1B6840F2127293420DD10A4BF5
:102210001B699BB219460748FEF7C0F9064B1B68BD
:102220009BB204491846FFF797F800BF80BD00BF76
:102230001C0100207C120020C801002080B500AFE6
:10224000044802F0D1F801220349024802F09BF849
:1022500000BF80BD6C0100207012002080B500AF6F
:10226000054800F04AFD054B054A0021024800F0F0
:102270000CFC00BF80BD00BF440100208C12002078
:102280002402002080B586B000AF7860144A154B58
:10229000D31A7B617B693B61134B1B68002B02D116
:1022A000114B124A1A60104B1A687B6813443A6942
:1022B0009A4207D203F02AF803460C221A604FF024
:1022C000FF3309E0084B1B68FB60074B1A687B680B
:1022D0001344054A1360FB6818461837BD4680BD95
:1022E0000000022000040000D01200202014002072
:1022F00080B400AF064BD3F88830054A43F470032E
:10230000C2F8883000BFBD465DF8047B704700BF4F
:1023100000ED00E0DFF834D00D480E490E4A0023EE
:1023200002E0D458C4500433C4188C42F9D30B4A89
:102330000B4C002301E013600432A242FBD3FFF7F1
:10234000D7FF02F0E9FFFEF70BFD70470000022007
:1023500000000020A8000020E86A0008A800002073
:1023600020140020FEE7000080B500AF0E4B1B6874
:102370000D4A43F4007313600B4B1B680A4A43F485
:1023800080631360084B1B68074A43F48073136033
:10239000032000F0BBFF002000F008F8FFF7BEFDAF
:1023A0000023184680BD00BF003C024080B582B0CB
:1023B00000AF7860124B1A68124B1B7819464FF425
:1023C0007A73B3FBF1F3B2FBF3F3184600F0D3FFDB
:1023D0000346002B01D001230EE07B680F2B0AD8A7
:1023E000002279684FF0FF3000F09BFF064A7B68BF
:1023F0001360002300E0012318460837BD4680BD66
:102400004C000020540000205000002080B400AF99
:10241000064B1B781A46064B1B681344044A13608C
:1024200000BFBD465DF8047B704700BF540000202C
:10243000D412002080B400AF034B1B681846BD4681
:102440005DF8047B704700BFD412002080B584B0D3
:1024500000AF7860FFF7EEFFB8607B68FB60FB6859
:10246000B3F1FF3F05D00A4B1B781A46FB681344B3
:10247000FB6000BFFFF7DEFF0246BB68D31AFA68B5
:102480009A42F7D800BF00BF1037BD4680BD00BFDD
:102490005400002080B584B000AF78607B68002BCA
:1024A00001D10123EDE07B6893F82030DBB2002BF3
:1024B00002D17868FFF75AFD7B681B681A687B6851
:1024C0001B6842F001021A60FFF7B4FFF86012E0E7
:1024D000FFF7B0FF0246FB68D31A0A2B0BD97B68C3
:1024E0005B6A43F400327B685A627B68052283F89A
:1024F00020200123C5E07B681B685B6803F00103B3
:10250000002BE5D07B681B681A687B681B6822F08B
:1025100002021A60FFF78EFFF86012E0FFF78AFFF1
:102520000246FB68D31A0A2B0BD97B685B6A43F41B
:1025300000327B685A627B68052283F820200123E1
:102540009FE07B681B685B6803F00203002BE5D10A
:102550007B681B7E012B08D17B681B681A687B682F
:102560001B6842F080021A6007E07B681B681A68EB
:102570007B681B6822F080021A607B685B7E012BFF
:1025800008D17B681B681A687B681B6842F04002B0
:102590001A6007E07B681B681A687B681B6822F07A
:1025A00040021A607B689B7E012B08D17B681B6808
:1025B0001A687B681B6842F020021A6007E07B689B
:1025C0001B681A687B681B6822F020021A607B680F
:1025D000DB7E012B08D17B681B681A687B681B684F
:1025E00022F010021A6007E07B681B681A687B689B
:1025F0001B6842F010021A607B681B7F012B08D118
:102600007B681B681A687B681B6842F008021A60C6
:1026100007E07B681B681A687B681B6822F0080269
:102620001A607B685B7F012B08D17B681B681A6886
:102630007B681B6842F004021A6007E07B681B6835
:102640001A687B681B6822F004021A607B689A682B
:102650007B68DB681A437B681B691A437B685B698C
:1026600042EA03017B685B685A1E7B681B680A4369
:10267000DA617B6800225A627B68012283F820209D
:10268000002318461037BD4680BD000080B487B0D7
:1026900000AF786039607B681B687B617B6893F86A
:1026A0002030FB74FB7C012B03D0FB7C022B40F021
:1026B000BE80654B7B617B69D3F8003243F0010239
:1026C0007B69C3F800227B69D3F8003223F47C5283
:1026D0007B69C3F800227B69D3F800223B685B6A00
:1026E0001B021A437B69C3F800223B685B6903F055
:1026F0001F03012202FA03F3FB607B69D3F81C225B
:10270000FB68DB431A407B69C3F81C223B68DB692A
:10271000002B23D17B69D3F80C22FB68DB431A40E2
:102720007B69C3F80C223B68DB6819043B685B6873
:102730009BB23A68526919437B69483243F83210B8
:102740003B689B6819043B681B689AB23B685B69ED
:102750000A4379694833DB000B445A603B68DB6904
:10276000012B22D17B69D3F80C22FB681A437B69C9
:10277000C3F80C223B681B6819043B685B689BB27A
:102780003A68526919437B69483243F832103B6812
:102790009B6819043B68DB689AB23B685B690A4333
:1027A00079694833DB000B445A603B689B69002B16
:1027B00009D17B69D3F80422FB68DB431A407B69AB
:1027C000C3F8042207E07B69D3F80422FB681A43AC
:1027D0007B69C3F804223B681B69002B09D17B6924
:1027E000D3F81422FB68DB431A407B69C3F8142238
:1027F00007E07B69D3F81422FB681A437B69C3F8AE
:1028000014223B681B6A012B07D17B69D3F81C2279
:10281000FB681A437B69C3F81C227B69D3F800323A
:1028200023F001027B69C3F80022002306E07B68E5
:102830005B6A43F480227B685A62012318461C3786
:10284000BD465DF8047B70470064004080B584B0ED
:1028500000AF78607B6893F82030DBB2012B2ED17B
:102860007B68022283F820207B681B681A687B68DB
:102870001B6822F001021A60FFF7DCFDF86012E02D
:10288000FFF7D8FD0246FB68D31A0A2B0BD97B68E9
:102890005B6A43F400327B685A627B68052283F8E6
:1028A0002020012312E07B681B685B6803F00103B2
:1028B000002BE5D17B6800225A62002306E07B688A
:1028C0005B6A43F400227B685A6201231846103782
:1028D000BD4680BD80B489B000AFF860B9607A6051
:1028E0003B60FB6893F82030FB77FB681B689B68B4
:1028F000BB61FB7F012B03D0FB7F022B40F0B88034
:10290000BB6903F08063002B0AD1BB6903F000634D
:10291000002B05D1BB6903F08053002B00F0A08091
:10292000BB691B0E03F003037B617B69022B07D994
:10293000FB685B6A43F40002FB685A6201239EE075
:1029400001227B699A403B681A60BB689B68002B38
:102950000DD1BB681B685A05BB68DB68F96809685C
:102960001A437B6918331B010B441A600FE0BB68E4
:102970005B68DA00BB689B681A43BB68DB68F96870
:1029800009681A437B6918331B010B441A60FB6802
:102990001968BB681A697B6918331B010B4404333F
:1029A0001A60BB681B7D012B11D1FB681A687B691B
:1029B00018331B01134404331B68FA68116843F48D
:1029C00080727B6918331B010B4404331A607B68E7
:1029D00007331B781A067B6806331B781B041A43DF
:1029E0007B6805331B781B0213437A680432127824
:1029F0001046FA68116843EA00027B691B010B4428
:102A000003F5C6731A607B6803331B781A067B686C
:102A100002331B781B041A437B6801331B781B02AB
:102A200013437A6812781046FA68116843EA000284
:102A30007B691B010B4403F5C4731A60FB681A68B9
:102A40007B6918331B0113441B68FA68116843F053
:102A500001027B6918331B010B441A6000230EE04E
:102A6000FB685B6A43F40012FB685A62012306E0CC
:102A7000FB685B6A43F48022FB685A6201231846B4
:102A80002437BD465DF8047B704780B487B000AF43
:102A9000F860B9607A603B60FB6893F82030FB75A2
:102AA000FB7D012B03D0FB7D022B40F0F380BB6844
:102AB000002B0ED1FB681B68DB6803F00303002BBF
:102AC00016D1FB685B6A43F40012FB685A6201236B
:102AD000E7E0FB681B681B6903F00303002B07D1C9
:102AE000FB685B6A43F40012FB685A620123D8E07A
:102AF000FB681A68BB681B331B0113441B6803F097
:102B000004027B689A607B689B68002B0CD1FB6891
:102B10001A68BB681B331B0113441B685B0DC3F3AE
:102B20000A027B681A600BE0FB681A68BB681B33FB
:102B30001B0113441B68DB0823F060427B685A606A
:102B4000FB681A68BB681B331B0113441B6803F046
:102B500002027B68DA60FB681A68BB681B331B01E2
:102B6000134404331B6803F00F027B681A61FB688F
:102B70001A68BB681B331B01134404331B681B0A10
:102B8000DAB27B689A61FB681A68BB681B331B0169
:102B9000134404331B681B0C9AB27B685A61FB68B0
:102BA0001A68BB681B01134403F5DC731B68DAB2B7
:102BB0003B681A70FB681A68BB681B01134403F575
:102BC000DC731B681A0A3B680133D2B21A70FB68C7
:102BD0001A68BB681B01134403F5DC731B681A0CED
:102BE0003B680233D2B21A70FB681A68BB681B01DB
:102BF000134403F5DC731B681A0E3B680333D2B22F
:102C00001A70FB681A68BB681B01134403F5DE7376
:102C10001A683B680433D2B21A70FB681A68BB6842
:102C20001B01134403F5DE731B681A0A3B68053366
:102C3000D2B21A70FB681A68BB681B01134403F513
:102C4000DE731B681A0C3B680633D2B21A70FB683D
:102C50001A68BB681B01134403F5DE731B681A0E68
:102C60003B680733D2B21A70BB68002B08D1FB68EF
:102C70001B68DA68FB681B6842F02002DA6007E034
:102C8000FB681B681A69FB681B6842F020021A6126
:102C9000002306E0FB685B6A43F48022FB685A620B
:102CA000012318461C37BD465DF8047B704780B48D
:102CB00085B000AF786039607B6893F82030FB7393
:102CC000FB7B012B02D0FB7B022B09D17B681B68AD
:102CD00059697B681B683A680A435A61002306E019
:102CE0007B685B6A43F480227B685A620123184642
:102CF0001437BD465DF8047B704780B58AB000AFDD
:102D0000786000237B627B681B685B693B627B6841
:102D10001B685B68FB617B681B689B68BB617B68A9
:102D20001B68DB687B617B681B681B693B617B6898
:102D30001B689B69FB603B6A03F00103002B7CD09E
:102D4000BB6903F00103002B23D07B681B680122C1
:102D50009A60BB6903F00203002B03D0786800F08F
:102D600083F916E0BB6903F00403002B04D07B6AEF
:102D700043F400637B620CE0BB6903F00803002BA3
:102D800004D07B6A43F480537B6202E0786800F0F1
:102D900089F9BB6903F48073002B24D07B681B681E
:102DA0004FF480729A60BB6903F40073002B03D068
:102DB000786800F063F916E0BB6903F48063002BC8
:102DC00004D07B6A43F400537B620CE0BB6903F4DC
:102DD0000063002B04D07B6A43F480437B6202E0F3
:102DE000786800F069F9BB6903F48033002B24D0C4
:102DF0007B681B684FF480329A60BB6903F4003330
:102E0000002B03D0786800F043F916E0BB6903F4A7
:102E10008023002B04D07B6A43F400437B620CE0E8
:102E2000BB6903F40023002B04D07B6A43F4803396
:102E30007B6202E0786800F049F93B6A03F008031E
:102E4000002B0CD07B6903F01003002B07D07B6AAA
:102E500043F400737B627B681B681022DA603B6A74
:102E600003F00403002B0BD07B6903F00803002B55
:102E700006D07B681B680822DA60786800F03AF9AF
:102E80003B6A03F00203002B09D07B681B68DB68F8
:102E900003F00303002B02D0786800F021F93B6AAD
:102EA00003F04003002B0CD03B6903F01003002B10
:102EB00007D07B6A43F480637B627B681B681022C7
:102EC0001A613B6A03F02003002B0BD03B6903F02F
:102ED0000803002B06D07B681B6808221A617868FB
:102EE00000F01CF93B6A03F01003002B09D07B684B
:102EF0001B681B6903F00303002B02D0786800F005
:102F000003F93B6A03F40033002B0BD0FB6903F099
:102F10001003002B06D07B681B6810225A6078686B
:102F200000F006F93B6A03F48033002B0BD0FB69F9
:102F300003F00803002B06D07B681B6808225A6048
:102F4000786800F0FFF83B6A03F40043002B7BD065
:102F5000FB6903F00403002B72D03B6A03F4807317
:102F6000002B08D0FB6803F00103002B03D07B6A21
:102F700043F001037B623B6A03F40073002B08D02B
:102F8000FB6803F00203002B03D07B6A43F00203CB
:102F90007B623B6A03F48063002B08D0FB6803F07C
:102FA0000403002B03D07B6A43F004037B623B6A7B
:102FB00003F40063002B43D0FB6803F07003002B85
:102FC0003ED0FB6803F07003602B2BD0602B2ED813
:102FD000502B22D0502B2AD8402B19D0402B26D84A
:102FE000302B10D0302B22D8102B02D0202B05D024
:102FF0001DE07B6A43F008037B6219E07B6A43F0C3
:1030000010037B6214E07B6A43F020037B620FE0D5
:103010007B6A43F040037B620AE07B6A43F08003F3
:103020007B6205E07B6A43F480737B6200E000BF53
:103030007B681B689A697B681B6822F070029A6142
:103040007B681B6804225A607B6A002B08D07B686F
:103050005A6A7B6A1A437B685A62786800F07CF887
:1030600000BF2837BD4680BD80B483B000AF786014
:1030700000BF0C37BD465DF8047B704780B483B059
:1030800000AF786000BF0C37BD465DF8047B704729
:1030900080B483B000AF786000BF0C37BD465DF8E8
:1030A000047B704780B483B000AF786000BF0C37FA
:1030B000BD465DF8047B704780B483B000AF786094
:1030C00000BF0C37BD465DF8047B704780B483B009
:1030D00000AF786000BF0C37BD465DF8047B7047D9
:1030E00080B483B000AF786000BF0C37BD465DF898
:1030F000047B704780B483B000AF786000BF0C37AA
:10310000BD465DF8047B704780B483B000AF786043
:1031100000BF0C37BD465DF8047B704780B483B0B8
:1031200000AF786000BF0C37BD465DF8047B704788
:1031300080B483B000AF786000BF0C37BD465DF847
:10314000047B704780B483B000AF786000BF0C3759
:10315000BD465DF8047B704780B483B000AF7860F3
:1031600000BF0C37BD465DF8047B704780B485B066
:1031700000AF78607B6803F00703FB600C4BDB68F3
:10318000BB60BA684FF6FF031340BB60FB681A02CE
:10319000BB68134343F0BF6343F40033BB60044A8E
:1031A000BB68D36000BF1437BD465DF8047B704731
:1031B00000ED00E080B400AF044BDB681B0A03F0B5
:1031C00007031846BD465DF8047B704700ED00E03C
:1031D00080B483B000AF0346FB7197F90730002B32
:1031E0000BDBFB7903F01F02074997F907305B09F6
:1031F000012000FA02F241F8232000BF0C37BD463F
:103200005DF8047B704700BF00E100E080B483B04C
:1032100000AF03463960FB7197F90730002B0ADBDA
:103220003B68DAB20C4997F907301201D2B20B446D
:1032300083F800230AE03B68DAB20849FB7903F01F
:103240000F03043B1201D2B20B441A7600BF0C37B5
:10325000BD465DF8047B704700E100E000ED00E052
:1032600080B489B000AFF860B9607A60FB6803F0A1
:103270000703FB61FB69C3F10703042B28BF042389
:10328000BB61FB690433062B02D9FB69033B00E0F9
:1032900000237B614FF0FF32BB6902FA03F3DA438C
:1032A000BB681A407B699A404FF0FF317B6901FA95
:1032B00003F3D9437B680B40134318462437BD46BC
:1032C0005DF8047B7047000080B582B000AF786085
:1032D0007B68013BB3F1807F01D301230FE00A4AF1
:1032E0007B68013B53600F214FF0FF30FFF78EFFEB
:1032F000054B00229A60044B07221A6000231846EF
:103300000837BD4680BD00BF10E000E080B582B048
:1033100000AF78607868FFF729FF00BF0837BD4627
:1033200080BD80B586B000AF0346B9607A60FB739C
:1033300000237B61FFF73EFF78617A68B96878699E
:10334000FFF78EFF024697F90F3011461846FFF738
:103350005DFF00BF1837BD4680BD80B582B000AFAD
:103360000346FB7197F907301846FFF731FF00BF9E
:103370000837BD4680BD80B582B000AF7860786800
:10338000FFF7A2FF034618460837BD4680BD80B54B
:1033900084B000AF78607B689B6DFB60FFF74AF8F4
:1033A000B8607B6893F83530DBB2022B08D07B68BD
:1033B00080225A657B68002283F83420012352E082
:1033C0007B681B681A687B681B6822F016021A600B
:1033D0007B681B685A697B681B6822F080025A610F
:1033E0007B681B6C002B03D17B689B6C002B07D088
:1033F0007B681B681A687B681B6822F008021A60E9
:103400007B681B681A687B681B6822F001021A60DF
:1034100013E0FFF70FF80246BB68D31A052B0CD94F
:103420007B6820225A657B68032283F835207B68FD
:10343000002283F83420032315E07B681B681B6897
:1034400003F00103002BE4D17B68DB6D3F229A403F
:10345000FB689A607B68012283F835207B68002234
:1034600083F83420002318461037BD4680BD80B451
:1034700083B000AF78607B6893F83530DBB2022B05
:1034800004D07B6880225A6501230CE07B6805220A
:1034900083F835207B681B681A687B681B6822F0FC
:1034A00001021A60002318460C37BD465DF8047B04
:1034B0007047000080B489B000AF786039600023A5
:1034C0007B6100233B610023BB610023FB616BE157
:1034D0000122FB6902FA03F37B613B681B687A698E
:1034E00013403B613A697B699A4240F05A813B68DC
:1034F0005B6803F00303012B05D03B685B6803F0B6
:103500000303022B30D17B689B68BB61FB695B00C6
:10351000032202FA03F3DB43BA691340BB613B6841
:10352000DA68FB695B0002FA03F3BA691343BB6113
:103530007B68BA699A607B685B68BB610122FB6942
:1035400002FA03F3DB43BA691340BB613B685B6873
:103550001B0903F00102FB6902FA03F3BA69134382
:10356000BB617B68BA695A603B685B6803F0030320
:10357000032B17D07B68DB68BB61FB695B00032210
:1035800002FA03F3DB43BA691340BB613B689A68F4
:10359000FB695B0002FA03F3BA691343BB617B6802
:1035A000BA69DA603B685B6803F00303022B23D13E
:1035B000FB69DA087B68083253F82230BB61FB698B
:1035C00003F007039B000F2202FA03F3DB43BA69FF
:1035D0001340BB613B681A69FB6903F007039B005A
:1035E00002FA03F3BA691343BB61FB69DA087B682B
:1035F0000832B96943F822107B681B68BB61FB691C
:103600005B00032202FA03F3DB43BA691340BB6198
:103610003B685B6803F00302FB695B0002FA03F39B
:10362000BA691343BB617B68BA691A603B685B681F
:1036300003F44033002B00F0B4800023FB60604BA8
:103640005B6C5F4A43F4804353645D4B5B6C03F4F3
:103650008043FB60FB685B4AFB699B08023352F8BE
:103660002330BB61FB6903F003039B000F2202FAC6
:1036700003F3DB43BA691340BB617B68524A934250
:103680002BD07B68514A934225D07B68504A9342A5
:103690001FD07B684F4A934219D07B684E4A9342B1
:1036A00013D07B684D4A93420DD07B684C4A9342BD
:1036B00007D07B684B4A934201D107230EE00823D1
:1036C0000CE006230AE0052308E0042306E00323B8
:1036D00004E0022302E0012300E00023FA6902F083
:1036E000030292009340BA691343BB613549FB69F9
:1036F0009B080233BA6941F823203B4B9B68BB61AE
:103700003B69DB43BA691340BB613B685B6803F408
:103710008013002B03D0BA693B691343BB61324A63
:10372000BB699360304BDB68BB613B69DB43BA69C3
:103730001340BB613B685B6803F40013002B03D0AC
:10374000BA693B691343BB61274ABB69D360264B07
:103750005B68BB613B69DB43BA691340BB613B6893
:103760005B6803F40033002B03D0BA693B69134351
:10377000BB611D4ABB6953601B4B1B68BB613B6946
:10378000DB43BA691340BB613B685B6803F4803379
:10379000002B03D0BA693B691343BB61124ABB6972
:1037A0001360FB690133FB61FB690F2B7FF690AE61
:1037B00000BF00BF2437BD465DF8047B704700BFE3
:1037C000003802400038014000000240000402407E
:1037D00000080240000C02400010024000140240A9
:1037E00000180240001C0240003C014080B485B03B
:1037F00000AF78600B467B807B681A697B8813403A
:10380000002B02D00123FB7301E00023FB73FB7B41
:1038100018461437BD465DF8047B704780B483B00A
:1038200000AF78600B467B8013467B707B78002B63
:1038300003D07A887B689A6103E07B881A047B68EE
:103840009A6100BF0C37BD465DF8047B70470000ED
:1038500080B582B000AF0346FB80084B5A69FB88F5
:103860001340002B06D0054AFB885361FB8818469D
:1038700000F006F800BF0837BD4680BD003C01409F
:1038800080B483B000AF0346FB8000BF0C37BD4659
:103890005DF8047B7047000080B586B000AF7860AB
:1038A0007B68002B01D1012367E27B681B6803F072
:1038B0000103002B75D0884B9B6803F00C03042B8D
:1038C0000CD0854B9B6803F00C03082B12D1824B64
:1038D0005B6803F48003B3F5800F0BD17E4B1B684C
:1038E00003F40033002B5BD07B685B68002B57D15F
:1038F000012342E27B685B68B3F5803F06D1764BDB
:103900001B68754A43F4803313601DE07B685B6875
:10391000B3F5A02F0CD1704B1B686F4A43F4802382
:1039200013606D4B1B686C4A43F4803313600BE0EB
:10393000694B1B68684A23F480331360664B1B682D
:10394000654A23F4802313607B685B68002B13D0E7
:10395000FEF770FD386108E0FEF76CFD02463B693A
:10396000D31A642B01D9032307E25B4B1B6803F4D2
:103970000033002BF0D014E0FEF75CFD386108E066
:10398000FEF758FD02463B69D31A642B01D9032385
:10399000F3E1514B1B6803F40033002BF0D100E03E
:1039A00000BF7B681B6803F00203002B63D04A4B07
:1039B0009B6803F00C03002B0BD0474B9B6803F074
:1039C0000C03082B1CD1444B5B6803F48003002BD1
:1039D00016D1414B1B6803F00203002B05D07B6816
:1039E000DB68012B01D00123C7E13B4B1B6823F0AF
:1039F000F8027B681B69DB00374913430B603AE030
:103A00007B68DB68002B20D0344B01221A60FEF764
:103A100011FD386108E0FEF70DFD02463B69D31A3F
:103A2000022B01D90323A8E12B4B1B6803F00203EF
:103A3000002BF0D0284B1B6823F0F8027B681B6931
:103A4000DB00254913430B6015E0244B00221A606C
:103A5000FEF7F0FC386108E0FEF7ECFC02463B693B
:103A6000D31A022B01D9032387E11B4B1B6803F0F8
:103A70000203002BF0D17B681B6803F00803002BC6
:103A800036D07B685B69002B16D0154B01221A607B
:103A9000FEF7D0FC386108E0FEF7CCFC02463B693B
:103AA000D31A022B01D9032367E10B4B5B6F03F0A1
:103AB0000203002BF0D01BE0094B00221A60FEF736
:103AC000B9FC38610EE0FEF7B5FC02463B69D31A3B
:103AD000022B07D9032350E100380240000047427F
:103AE000800E4742884B5B6F03F00203002BEAD144
:103AF0007B681B6803F00403002B00F09780002311
:103B0000FB75814B1B6C03F08053002B0FD10023FE
:103B1000BB607D4B1B6C7C4A43F0805313647A4B33
:103B20001B6C03F08053BB60BB680123FB75774BB4
:103B30001B6803F48073002B18D1744B1B68734A05
:103B400043F480731360FEF775FC386108E0FEF7FC
:103B500071FC02463B69D31A022B01D903230CE105
:103B60006A4B1B6803F48073002BF0D07B689B6862
:103B7000012B06D1644B1B6F634A43F001031367AB
:103B80001CE07B689B68052B0CD15F4B1B6F5E4A6A
:103B900043F0040313675C4B1B6F5B4A43F0010364
:103BA00013670BE0584B1B6F574A23F00103136751
:103BB000554B1B6F544A23F0040313677B689B68C3
:103BC000002B15D0FEF736FC38610AE0FEF732FC18
:103BD00002463B69D31A41F28832934201D903234A
:103BE000CBE0494B1B6F03F00203002BEED014E037
:103BF000FEF720FC38610AE0FEF71CFC02463B6938
:103C0000D31A41F28832934201D90323B5E03E4BE7
:103C10001B6F03F00203002BEED1FB7D012B05D1BE
:103C2000394B1B6C384A23F0805313647B689B69C3
:103C3000002B00F0A180344B9B6803F00C03082B91
:103C40005CD07B689B69022B41D1314B00221A600A
:103C5000FEF7F0FB386108E0FEF7ECFB02463B693B
:103C6000D31A022B01D9032387E0274B1B6803F0EB
:103C70000073002BF0D17B68DA697B681B6A1A43FA
:103C80007B685B6A9B011A437B689B6A5B08013B0C
:103C90001B041A437B68DB6A1B061B4913434B60FA
:103CA0001B4B01221A60FEF7C5FB386108E0FEF7E6
:103CB000C1FB02463B69D31A022B01D903235CE006
:103CC000114B1B6803F00073002BF0D054E0104B35
:103CD00000221A60FEF7AEFB386108E0FEF7AAFB8F
:103CE00002463B69D31A022B01D9032345E0064B58
:103CF0001B6803F00073002BF0D13DE07B689B69EB
:103D0000012B07D1012338E0003802400070004049
:103D1000600047421B4B5B68FB607B689B69012B23
:103D200028D0FB6803F480027B68DB699A4221D1CA
:103D3000FB6803F03F027B681B6A9A421AD1FA685B
:103D400047F6C07313407A68526A9201934211D1C8
:103D5000FB6803F440327B689B6A5B08013B1B04F1
:103D60009A4207D1FB6803F070627B68DB6A1B062E
:103D70009A4201D0012300E0002318461837BD46BF
:103D800080BD00BF0038024080B584B000AF7860CD
:103D900039607B68002B01D10123CCE0684B1B68A4
:103DA00003F007033A689A420CD9654B3A68D2B2DD
:103DB0001A70634B1B6803F007033A689A4201D0FC
:103DC0000123B8E07B681B6803F00203002B20D0BE
:103DD0007B681B6803F00403002B05D0594B9B68DC
:103DE000584A43F4E05393607B681B6803F0080370
:103DF000002B05D0534B9B68524A43F460439360B9
:103E0000504B9B6823F0F0027B689B684D4913433D
:103E10008B607B681B6803F00103002B44D07B6838
:103E20005B68012B07D1474B1B6803F40033002B61
:103E300019D101237FE07B685B68022B03D07B688C
:103E40005B68032B07D13F4B1B6803F00073002B0B
:103E500009D101236FE03B4B1B6803F00203002BE9
:103E600001D1012367E0374B9B6823F003027B6895
:103E70005B68344913438B60FEF7DCFAF8600AE0B4
:103E8000FEF7D8FA0246FB68D31A41F28832934211
:103E900001D903234FE02B4B9B6803F00C027B6896
:103EA0005B689B009A42EBD1254B1B6803F007032C
:103EB0003A689A420CD2224B3A68D2B21A70204B1E
:103EC0001B6803F007033A689A4201D0012332E0ED
:103ED0007B681B6803F00403002B08D0194B9B6818
:103EE00023F4E0527B68DB68164913438B607B68E0
:103EF0001B6803F00803002B09D0124B9B6823F4C6
:103F000060427B681B69DB000E4913438B6000F045
:103F100021F802460B4B9B681B0903F00F030A496B
:103F2000CB5C22FA03F3094A1360094B1B6818465D
:103F3000FEF73CFA002318461037BD4680BD00BF8F
:103F4000003C0240003802408C6A00084C0000200F
:103F5000500000202DE9B04F94B000AF00237B64E7
:103F60000023FB6400233B640023BB64794B9B6804
:103F700003F00C03082B0DD0082B00F2E180002B7E
:103F800002D0042B03D0DBE0734BBB64DBE0734B4C
:103F9000BB64D8E06F4B5B6803F03F037B646D4B01
:103FA0005B6803F48003002B63D06A4B5B689B095A
:103FB0000022BB63FA63BB6BC3F308033B630023BC
:103FC0007B63D7E90C4522462B464FF000004FF0AB
:103FD0000001590141EAD261500102460B462146D7
:103FE000511A3961294663EB01037B614FF00002EE
:103FF0004FF00003D7E904AB59468B01514643EA21
:10400000916351468A015146B2EB0108594663EB70
:1040100001094FF000024FF000034FEAC90343EAE1
:1040200058734FEAC80290469946234618EB03039B
:10403000BB602B4649EB0303FB604FF000024FF0DF
:104040000003D7E9024529464B02214643EAD153F2
:1040500021464A02104619467B6C0022BB62FA6276
:10406000D7E90A23FCF704F902460B461346FB6422
:1040700058E0384B5B689B09002218461146C0F394
:1040800008033B6200237B62D7E9088942464B461E
:104090004FF000004FF00001590141EAD261500198
:1040A00002460B464146B2EB010A494663EB010B5F
:1040B0004FF000024FF000034FEA8B1343EA9A637C
:1040C0004FEA8A12B2EB0A0463EB0B054FF00002D1
:1040D0004FF00003EB0043EA5473E20014461D4620
:1040E0004346E3183B604B4645EB03037B604FF0D0
:1040F00000024FF00003D7E9004529468B02214614
:1041000043EA915321468A02104619467B6C0022ED
:10411000BB61FA61D7E90623FCF7AAF802460B4611
:104120001346FB640B4B5B681B0C03F0030301336A
:104130005B003B64FA6C3B6CB2FBF3F3BB6402E0E4
:10414000054BBB6400BFBB6C18465037BD46BDE88D
:10415000B08F00BF003802400024F40000127A0043
:1041600080B400AF034B1B681846BD465DF8047B66
:10417000704700BF4C00002080B500AFFFF7F0FF94
:104180000246054B9B689B0A03F007030349CB5C7F
:1041900022FA03F3184680BD003802409C6A0008EA
:1041A00080B500AFFFF7DCFF0246054B9B685B0B59
:1041B00003F007030349CB5C22FA03F3184680BDE2
:1041C000003802409C6A000880B582B000AF786079
:1041D0007B68002B01D101233FE07B6893F83D30E1
:1041E000DBB2002B06D17B68002283F83C20786884
:1041F000FDF76CFF7B68242283F83D207B681B68F9
:10420000DA687B681B6822F40052DA60786800F094
:10421000DFFD7B681B681A697B681B6822F490428B
:104220001A617B681B685A697B681B6822F02A0246
:104230005A617B681B68DA687B681B6842F400522D
:10424000DA607B6800221A647B68202283F83D20B4
:104250007B68202283F83E20002318460837BD469D
:1042600080BD80B58AB002AFF860B9603B6013468C
:10427000FB8000237B61FB6893F83D30DBB2202B91
:104280007CD1BB68002B02D0FB88002B01D101231D
:1042900075E0FB6893F83C30012B01D102236EE0FE
:1042A000FB68012283F83C20FB6800221A64FB684B
:1042B000212283F83D20FEF7BDF87861FB68FA887B
:1042C0009A84FB68FA88DA84FB689B68B3F5805FA0
:1042D00008D1FB681B69002B04D10023FB61BB687C
:1042E000BB6103E0BB68FB610023BB61FB6800228C
:1042F00083F83C202AE03B6800937B690022802100
:10430000F86800F01FFB0346002B01D0032336E0C2
:10431000FB69002B0BD1BB691B881A46FB681B6825
:10432000C2F308025A60BB690233BB6107E0FB6954
:104330001A78FB681B685A60FB690133FB61FB68F4
:10434000DB8C9BB2013B9AB2FB68DA84FB68DB8CA6
:104350009BB2002BCFD13B6800937B6900224021A8
:10436000F86800F0EFFA0346002B01D0032306E0C3
:10437000FB68202283F83D20002300E0022318463A
:104380002037BD4680BD80B584B000AFF860B9600D
:104390001346FB80FB6893F83E30DBB2202B1DD127
:1043A000BB68002B02D0FB88002B01D1012316E053
:1043B000FB6893F83C30012B01D102230FE0FB682E
:1043C000012283F83C20FB6800221A63FB881A460E
:1043D000B968F86800F024FB034600E002231846A1
:1043E0001037BD4680BD000080B5BAB000AF786020
:1043F0007B681B681B68C7F8E4307B681B68DB6858
:10440000C7F8E0307B681B685B69C7F8DC300023C5
:10441000C7F8D8300023C7F8D430D7F8E43003F019
:104420000F03C7F8D830D7F8D830002B0FD1D7F802
:10443000E43003F02003002B09D0D7F8E03003F07C
:104440002003002B03D0786800F007FC56E2D7F871
:10445000D830002B00F0DE80D7F8DC3003F0010309
:10446000002B06D1D7F8E03003F49073002B00F056
:10447000D180D7F8E43003F00103002B0BD0D7F83C
:10448000E03003F48073002B05D07B681B6C43F095
:1044900001027B681A64D7F8E43003F00403002BB0
:1044A0000BD0D7F8DC3003F00103002B05D07B687C
:1044B0001B6C43F002027B681A64D7F8E43003F007
:1044C0000203002B0BD0D7F8DC3003F00103002BE4
:1044D00005D07B681B6C43F004027B681A64D7F834
:1044E000E43003F00803002B11D0D7F8E03003F0DC
:1044F0002003002B05D1D7F8DC3003F00103002B9B
:1045000005D07B681B6C43F008027B681A647B68EB
:104510001B6C002B00F0ED81D7F8E43003F0200392
:10452000002B08D0D7F8E03003F02003002B02D096
:10453000786800F092FB7B681B685B6903F04003BE
:10454000402B0CBF01230023DBB2C7F8D4307B68BB
:104550001B6C03F00803002B03D1D7F8D430002BD9
:104560004FD0786800F09AFA7B681B685B6903F0AB
:104570004003402B41D17B681B681433C7F89C3043
:10458000D7F89C3053E8003FC7F89830D7F89830F8
:1045900023F04003C7F8D0307B681B681433D7F88A
:1045A000D020C7F8A820C7F8A430D7F8A410D7F8AF
:1045B000A82041E80023C7F8A030D7F8A030002B8E
:1045C000D9D17B689B6B002B13D07B689B6B7D4A9A
:1045D0001A657B689B6B1846FEF749FF0346002B64
:1045E00016D07B689B6B1B6D7A68926B1046984760
:1045F0000EE0786800F090F90AE0786800F08CF935
:1046000006E0786800F088F97B6800221A6470E19F
:1046100000BF6EE17B681B6B012B40F04A81D7F82D
:10462000E43003F01003002B00F04381D7F8E030B2
:1046300003F01003002B00F03C810023BB607B687B
:104640001B681B68BB607B681B685B68BB60BB68E2
:104650007B681B685B6903F04003402B40F0B4802B
:104660007B689B6B1B685B68A7F8BE30B7F8BE30F1
:10467000002B00F040817B689B8DB7F8BE209A42EA
:1046800080F039817B68B7F8BE20DA857B689B6B48
:10469000DB69B3F5807F00F088807B681B680C3392
:1046A000C7F88830D7F8883053E8003FC7F884301F
:1046B000D7F8843023F48073C7F8B8307B681B6860
:1046C0000C33D7F8B820C7F89420C7F89030D7F843
:1046D0009010D7F8942041E80023C7F88C30D7F821
:1046E0008C30002BD9D17B681B6814337B677B6FC0
:1046F00053E8003F3B673B6F23F00103C7F8B4303A
:104700007B681B681433D7F8B420C7F88020FB6798
:10471000F96FD7F8802041E80023BB67BB6F002BFF
:10472000E1D17B681B6814333B663B6E53E8003F66
:10473000FB65FB6D23F04003C7F8B0307B681B6856
:104740001433D7F8B020FA66BB66B96EFA6E41E84A
:1047500000237B667B6E002BE3D17B68202283F8ED
:104760003E207B6800221A637B681B680C33FB6465
:10477000FB6C53E8003FBB64BB6C23F01003C7F82D
:10478000AC307B681B680C33D7F8AC20BA657B650E
:10479000796DBA6D41E800233B653B6D002BE3D199
:1047A0007B689B6B1846FEF7F2FD7B689A8D7B68F1
:1047B000DB8D9BB2D31A9BB21946786800F0B6F82D
:1047C00099E000BF634B00087B689A8D7B68DB8DA6
:1047D0009BB2D31AA7F8CE307B68DB8D9BB2002B3F
:1047E00000F08B80B7F8CE30002B00F086807B681D
:1047F0001B680C33BB63BB6B53E8003F7B637B6B75
:1048000023F49073C7F8C8307B681B680C33D7F863
:10481000C8207A643B64396C7A6C41E80023FB63FE
:10482000FB6B002BE3D17B681B6814337B627B6AD4
:1048300053E8003F3B623B6A23F00103C7F8C430F2
:104840007B681B681433D7F8C4203A63FB62F96AAB
:104850003A6B41E80023BB62BB6A002BE3D17B6863
:10486000202283F83E207B6800221A637B681B6845
:104870000C333B613B6953E8003FFB60FB6823F06E
:104880001003C7F8C0307B681B680C33D7F8C02012
:10489000FA61BB61B969FA6941E800237B617B6910
:1048A000002BE3D1B7F8CE301946786800F03EF817
:1048B00023E0D7F8E43003F08003002B09D0D7F8C9
:1048C000E03003F08003002B03D0786800F05DF93E
:1048D00014E0D7F8E43003F04003002B0ED0D7F8F3
:1048E000E03003F04003002B08D0786800F09DF919
:1048F00004E000BF02E000BF00E000BFE837BD46B3
:1049000080BD00BF80B483B000AF786000BF0C37BB
:10491000BD465DF8047B704780B483B000AF78601B
:1049200000BF0C37BD465DF8047B704780B483B090
:1049300000AF78600B467B8000BF0C37BD465DF84A
:10494000047B704780B590B000AFF860B9603B6001
:104950001346FB7150E0BB6CB3F1FF3F4CD0BB6C16
:10496000002B07D0FDF766FD02463B68D31ABA6CF0
:104970009A4241D2FB681B680C33BB62BB6A53E8A6
:10498000003F7B627B6A23F4D073FB63FB681B6888
:104990000C33FA6B7A633B63396B7A6B41E8002323
:1049A000FB62FB6A002BE5D1FB681B6814337B615B
:1049B0007B6953E8003F3B613B6923F00103BB6324
:1049C000FB681B681433BA6B3A62FB61F9693A6A97
:1049D00041E80023BB61BB69002BE5D1FB682022C5
:1049E00083F83D20FB68202283F83E20FB680022EC
:1049F00083F83C2003230FE0FB681B681A68BB6840
:104A00001340BA689A420CBF01230023DBB21A4656
:104A1000FB799A429FD0002318464037BD4680BD9F
:104A200080B485B000AFF860B9601346FB80FB68C6
:104A3000BA689A62FB68FA889A85FB68FA88DA8510
:104A4000FB6800221A64FB68222283F83E20FB6880
:104A5000002283F83C20FB681B69002B07D0FB6811
:104A60001B68DA68FB681B6842F48072DA60FB68D6
:104A70001B685A69FB681B6842F001025A61FB68B7
:104A80001B68DA68FB681B6842F02002DA600023CA
:104A900018461437BD465DF8047B704780B495B066
:104AA00000AF78607B681B680C337B637B6B53E8DB
:104AB000003F3B633B6B23F49073FB647B681B6894
:104AC0000C33FA6C3A64FB63F96B3A6C41E80023EF
:104AD000BB63BB6B002BE5D17B681B6814333B6267
:104AE0003B6A53E8003FFB61FB6923F00103BB64B1
:104AF0007B681B681433BA6CFA62BB62B96AFA6AE3
:104B000041E800237B627B6A002BE5D17B681B6B4D
:104B1000012B19D17B681B680C33FB60FB6853E8E1
:104B2000003FBB60BB6823F010037B647B681B689D
:104B30000C337A6CBA617B617969BA6941E8002308
:104B40003B613B69002BE5D17B68202283F83E2046
:104B50007B6800221A6300BF5437BD465DF8047BB2
:104B6000704780B584B000AF78607B689B6BFB605A
:104B7000FB680022DA85FB680022DA84F868FFF718
:104B8000CBFE00BF1037BD4680BD80B485B000AFFE
:104B900078607B6893F83D30DBB2212B3ED17B6897
:104BA0009B68B3F5805F14D17B681B69002B10D123
:104BB0007B681B6AFB60FB681B881A467B681B6866
:104BC000C2F308025A607B681B6A9A1C7B681A62EF
:104BD00008E07B681B6A591C7A6811621A787B6846
:104BE0001B685A607B68DB8C9BB2013B9BB27A6886
:104BF0001946D184002B0FD17B681B68DA687B686B
:104C00001B6822F08002DA607B681B68DA687B68C8
:104C10001B6842F04002DA60002300E002231846DD
:104C20001437BD465DF8047B704780B582B000AF95
:104C300078607B681B68DA687B681B6822F040023A
:104C4000DA607B68202283F83D207868FFF75AFEFF
:104C5000002318460837BD4680BD80B58CB000AF34
:104C600078607B6893F83E30DBB2222B40F0AB805B
:104C70007B689B68B3F5805F17D17B681B69002B4D
:104C800013D10023FB627B689B6ABB627B681B6855
:104C90005B689BB2C3F308039AB2BB6A1A807B6855
:104CA0009B6A9A1C7B689A6226E07B689B6AFB621F
:104CB0000023BB627B689B68B3F5805F07D07B688D
:104CC0009B68002B0AD17B681B69002B06D17B688F
:104CD0001B685B68DAB2FB6A1A7008E07B681B68C5
:104CE0005B68DBB203F07F03DAB2FB6A1A707B68A1
:104CF0009B6A5A1C7B689A627B68DB8D9BB2013B86
:104D00009BB27A681946D185002B5AD17B681B6803
:104D1000DA687B681B6822F02002DA607B681B6817
:104D2000DA687B681B6822F48072DA607B681B6833
:104D30005A697B681B6822F001025A617B68202255
:104D400083F83E207B681B6B012B35D17B680022EA
:104D50001A637B681B680C337B617B6953E8003FF7
:104D60003B613B6923F010037B627B681B680C335B
:104D70007A6A3A62FB61F9693A6A41E80023BB61E9
:104D8000BB69002BE5D17B681B681B6803F010032F
:104D9000102B0AD10023FB607B681B681B68FB603B
:104DA0007B681B685B68FB60FB687B689B8D1946B2
:104DB0007868FFF7BBFD02E07868FCF75DFB002335
:104DC00002E0002300E0022318463037BD4680BDD4
:104DD0002DE9B04FC0B000AFC7F8F400D7F8F430F9
:104DE0001B681B6923F44050D7F8F430D968D7F812
:104DF000F4301A6840EA01031361D7F8F4309A6876
:104E0000D7F8F4301B691A43D7F8F4305B691A43BA
:104E1000D7F8F430DB691343C7F8F830D7F8F4302B
:104E20001B68DB6823F4164121F00C01D7F8F4303D
:104E30001A68D7F8F8300B43D360D7F8F4301B6802
:104E40005B6923F44070D7F8F4309969D7F8F430EF
:104E50001A6840EA01035361D7F8F4301A688F4B9F
:104E60009A4205D0D7F8F4301A688D4B9A4204D193
:104E7000FFF796F9C7F8FC0003E0FFF77DF9C7F8E4
:104E8000FC00D7F8F430DB69B3F5004F40F00C813B
:104E9000D7F8FC300022C7F8E830C7F8EC20D7E993
:104EA0003A4522462B469118B9655B41FB65D7E927
:104EB0001623214612EB0108294643EB01094FF066
:104EC00000024FF000034FEAC90343EA58734FEA68
:104ED000C80290469946234618EB0303C7F8E03012
:104EE0002B4649EB0303C7F8E430D7F8F4305B688E
:104EF0000022C7F8D830C7F8DC20D7E936120B46B5
:104F0000DB183B65134642EB03037B65D7E91423AB
:104F1000D7E93801FBF7ACF902460B46614BA3FB1E
:104F200002235B091C01D7F8FC300022C7F8D030FF
:104F3000C7F8D420D7E9348942464B469118B96462
:104F40005B41FB64D7E91223414612EB010A494653
:104F500043EB010B4FF000024FF000034FEACB038D
:104F600043EA5A734FEACA0292469B4643461AEBFB
:104F70000303C7F8C8304B464BEB0303C7F8CC30EC
:104F8000D7F8F4305B680022C7F8C030C7F8C420F7
:104F9000D7E930120B46DB183B64134642EB0303A0
:104FA0007B64D7E91023D7E93201FBF761F90246A8
:104FB0000B4611463B4BA3FB01235B09642202FB1A
:104FC00003F3CB1ADB0003F13202364BA3FB0223BF
:104FD0005B095B0003F4F8731C44D7F8FC30002233
:104FE000C7F8B830C7F8BC20D7E92E8942464B46EF
:104FF0009118B9635B41FB63D7E90E234146511811
:10500000396349464B417B634FF000024FF0000388
:10501000D7E90CAB5946CB00514643EA5173514690
:10502000CA0010461946034642469B18C7F8B030DE
:105030004B460A4642EB0303C7F8B430D7F8F430C6
:105040005B680022C7F8A830C7F8AC20D7E92A125D
:105050000B46DB18BB62134642EB0303FB62D7E946
:105060000A23D7E92C01FBF703F902460B460D4B47
:10507000A3FB02135B09642101FB03F3D31ADB00DA
:105080003233084AA2FB03235B0903F00702D7F877
:10509000F4301B6822449A6006E100BF0010014012
:1050A000001401401F85EB51D7F8FC300022C7F8EF
:1050B000A030C7F8A420D7E9288942464B4691186A
:1050C00039625B417B62D7E908234146541849465F
:1050D00043EB01054FF000024FF00003EB0043EA01
:1050E0005473E20014461D464346E318C7F898304F
:1050F0004B4645EB0303C7F89C30D7F8F4305B68A8
:105100000022C7F89030C7F894204FF000024FF00B
:105110000003D7E9244529468B00214643EA9173D1
:1051200021468A00D7E92601FBF7A2F802460B4682
:10513000604BA3FB02235B091C01D7F8FC30002263
:10514000C7F88830C7F88C20D7E9228942464B46F9
:105150009118B9615B41FB61D7E9062341465118BB
:10516000396149464B417B614FF000024FF000032B
:10517000D7E904AB5946CB00514643EA5173514637
:10518000CA0010461946034642469B18C7F88030AD
:105190004B460A4642EB0303C7F88430D7F8F43095
:1051A0005B680022BB67FA674FF000024FF0000314
:1051B000D7E91E8949468B00414643EA917341462F
:1051C0008A00D7E92001FBF753F802460B46114647
:1051D000384BA3FB01235B09642202FB03F3CB1AC8
:1051E0001B013233334AA2FB03235B0903F0F003B4
:1051F0001C44D7F8FC3000223B677A67D7E91C894A
:1052000042464B469118B9605B41FB60D7E90223E7
:1052100041465118396049464B417B604FF00002CE
:105220004FF00003D7E900AB5946CB00514643EAA3
:1052300051735146CA0010461946034642469B1810
:10524000BB664B460A4642EB0303FB66D7F8F430D5
:105250005B6800223B667A664FF000024FF0000365
:10526000D7E9188949468B00414643EA9173414684
:105270008A00D7E91A01FAF7FBFF02460B460D4BED
:10528000A3FB02135B09642101FB03F3D31A1B0187
:105290003233084AA2FB03235B0903F00F02D7F85D
:1052A000F4301B6822449A6000BF07F58077BD4642
:1052B000BDE8B08F1F85EB510EB410B59DB01FAB8C
:1052C000029006906FF000410A48079104910A4944
:1052D00053F8042B0591002402A9006801931B9444
:1052E00000F094F9029B1C701DB0BDE8104003B0A3
:1052F000704700BF580000200802FFFF0244034629
:10530000934200D1704703F8011BF9E7014B18687D
:10531000704700BF5800002070B50D4D0D4C641B48
:10532000A4100026A64209D10B4D0C4C00F064FCE1
:10533000641BA4100026A64205D170BD55F8043B9D
:1053400098470136EEE755F8043B98470136F2E7F7
:10535000E06A0008E06A0008E06A0008E46A000801
:105360007047704738B50546002941D051F8043CD4
:105370000C1F002BB8BFE41800F0E0F81D4A1368BA
:1053800033B9636014602846BDE8384000F0DCB8EB
:10539000A34208D9206821188B4201BF19685B68B5
:1053A00009182160EDE71A465B680BB1A342FAD9F0
:1053B00011685018A0420BD1206801445018834254
:1053C0001160E0D118685B68536008441060DAE748
:1053D00002D90C232B60D6E7206821188B4204BF2A
:1053E00019685B68636004BF091821605460CAE7EC
:1053F00038BD00BF1C14002070B50F4E0C4631683C
:10540000054611B900F0A4FB30602146284600F0A3
:105410009FFB431C03D14FF0FF34204670BDC41CDA
:1054200024F00304A042F8D0211A284600F090FB93
:105430000130F2D1EFE700BF181400202DE9F84346
:10544000CD1C25F0030508350C2D38BF0C25002D8B
:10545000064601DBA94204D90C2333600020BDE8D5
:10546000F883DFF8D48000F069F8D8F800301C46E3
:1054700044BB29463046FFF7BFFF431C044658D1C2
:10548000D8F800402746002F43D1002C4BD023688A
:105490003946304604EB030900F05AFB814542D1FE
:1054A00021686D1A29463046FFF7A6FF01303AD031
:1054B00023682B442360D8F800305A6862BBC8F8D0
:1054C00000700FE02268521B20D40B2A17D96119F3
:1054D000A342256018BF5960636808BFC8F8001070
:1054E00062514B60304600F02FF804F10B00231D91
:1054F00020F00700C21A1CBF1B1AA350AFE7626856
:10550000A3420CBFC8F800205A60EBE7234664684A
:10551000AEE73C467F68B6E71A465B68A342FBD11C
:1055200000235360DEE70C233360304600F00CF8B4
:1055300094E70560D6E700BF1C1400200148FFF780
:105540000FBF00BF141400200148FFF70ABF00BFBF
:10555000141400202DE9F0478E681F46BE420B68E8
:1055600082460C4690462DD8B1F90C2012F4906F6B
:1055700026D06569096905EB4505A3EB010905EB33
:10558000D5757B1C4B446D109D4238BF1D4653059D
:1055900027D52946FFF752FF064660B321694A46E0
:1055A00000F0E6FAA38923F4906343F08003A3811B
:1055B000266165614E44A5EB09052660A5603E465F
:1055C000BE4200D93E4620683246414600F0A6FA67
:1055D000A3689B1BA3602368334423600020BDE8BD
:1055E000F0872A4600F0D2FA06460028E0D1216969
:1055F0005046FFF7B7FE0C23CAF80030A38943F0EA
:105600004003A3814FF0FF30E9E700002DE9F04FA0
:1056100098468B891B069DB007460D46144610D54B
:105620000B6973B94021FFF709FF2860286130B981
:105630000C233B604FF0FF301DB0BDE8F08F4023DE
:105640006B610023099320238DF82930CDF80C805D
:105650003023DFF89C818DF82A304FF00109234672
:105660009A4613F8012B0AB1252AF9D1BAEB040B9B
:105670000BD05B46224629463846FFF76BFF0130C8
:1056800000F0A780099A5A4409929AF80030002B3A
:1056900000F09F8000234FF0FF32CDE905230AF18F
:1056A000010A049307938DF853301A935446052248
:1056B00014F8011B4E48FAF78BFD049AD8B9D006AE
:1056C00044BF20238DF85330110744BF2B238DF89E
:1056D00053309AF800302A2B15D0079A54460020F0
:1056E0004FF00A0C214611F8013B303B092B4BD9F6
:1056F000B0B1079214E0A0EB080309FA03F31343D7
:105700000493A246D2E7039B191D1B680391002B4B
:10571000BBBF5B4242F0020207930793B8BF0492FB
:1057200023782E2B0AD163782A2B32D1039B1A1DA2
:105730001B68039243EAE37302340593DFF8C0A0C9
:10574000217803225046FAF743FD38B1049BA0EBC1
:105750000A004022824013430134049314F8011BD1
:1057600024488DF828100622FAF732FD002836D09A
:10577000214B1BBB039B073323F007030833039321
:10578000099B334409936AE70CFB02320C46012063
:10579000A8E700230134059319464FF00A0C204670
:1057A00010F8012B303A092A03D9002BC6D00591F5
:1057B000C4E70CFB012104460123F0E703AB00938F
:1057C0002A460E4B04A93846AFF30080421C064619
:1057D000D6D1AB895B063FF52DAF09982CE703AB1B
:1057E00000932A46054B04A9384600F079F8EDE706
:1057F000A46A0008AE6A00080000000055550008C1
:10580000AA6A00082DE9F047164698468A680B698F
:10581000DDF820909342B8BF1346336091F84320DF
:1058200007460C460AB1013333602368990642BF2C
:10583000336802333360256815F0060506D104F19C
:10584000190AE36832689B1AAB4226DC94F84330AD
:105850002268003B18BF012392062BD404F14302B7
:1058600041463846C84701301ED02368226903F0FC
:105870000603042B02BFE5683368ED1AA3680CBF6A
:1058800025EAE57500259342C4BF9B1AED18002652
:105890001A34B5421AD1002008E00123524641468D
:1058A0003846C847013003D14FF0FF30BDE8F087DC
:1058B0000135C6E7E1185A1C302081F84300224424
:1058C00094F8451082F843100233C7E701232246BB
:1058D00041463846C8470130E6D00136D9E70000D6
:1058E0002DE9FF470F7E0C9E782F914680460C468F
:1058F0009A4601F1430207D8622F0AD8002F00F020
:10590000D180582F00F0B88004F1420684F842702C
:105910003AE0A7F16303152BF6D801A151F823F063
:10592000795900088D5900080959000809590008DB
:1059300009590008095900088D590008095900083B
:105940000959000809590008095900088B5A00082C
:10595000B7590008455A00080959000809590008B4
:10596000AD5A000809590008B7590008095900083C
:10597000095900084D5A000833681A1D1B68326027
:1059800004F1420684F8423001239CE03368206829
:10599000191D3160060601D51D6803E04506FBD5DB
:1059A000B3F90050002D03DA2D236D4284F8433003
:1059B00058480A2311E021683368080653F8045B4D
:1059C00002D4490648BFADB26F2F5248336014BFAE
:1059D0000A230823002184F843106668A660002E7D
:1059E00005DB21682E4321F0040121604BD01646CF
:1059F000B5FBF3F103FB1157C75D06F8017D2F4698
:105A0000BB420D46F4D9082B0BD12368DF0708D51C
:105A1000236961689942DEBF302306F8013C06F134
:105A2000FF36921B2261CDF800A04B4603AA214607
:105A30004046FFF7E7FE01304AD14FF0FF3004B097
:105A4000BDE8F087236843F02003236032487827BD
:105A500084F84570236831681F0651F8045B02D44E
:105A60005F0648BFADB23160D90744BF43F02003A1
:105A700023601DB11023ADE72648E9E7236823F032
:105A800020032360F6E71646BDE7336825686169A1
:105A9000181D30602E061B6801D5196002E06806EB
:105AA000FBD51980002323611646BCE733681A1D15
:105AB00032601E68626800213046FAF789FB08B13F
:105AC000801B606063682361002384F84330AAE789
:105AD0002369324649464046D0470130ADD023685D
